:020000040800F2
:1000000078100020B9040008DD010008DF010008B5
:10001000E3010008E7010008EB0100080000000010
:10002000000000000000000000000000EF010008D8
:10003000F101000800000000F3010008F5010008CC
:10004000D3040008D3040008D3040008D304000834
:10005000D3040008D3040008D3040008D304000824
:10006000D3040008D3040008D3040008D304000814
:10007000D3040008D3040008D3040008D304000804
:10008000D3040008D3040008D3040008D3040008F4
:10009000D3040008D3040008D3040008D3040008E4
:1000A000D3040008D3040008D3040008D3040008D4
:1000B000634B0008D3040008D3040008D3040008ED
:1000C000D3040008D3040008D3040008D3040008B4
:1000D000D3040008D3040008D30400086F330008D9
:1000E000D3040008D3040008D304000800F002F889
:1000F00000F05FF80AA090E8000C82448344AAF163
:100100000107DA4501D100F054F8AFF2090EBAE860
:100110000F0013F0010F18BFFB1A43F0010318473B
:1001200020800000408000000A444FF0000C10F8CE
:10013000013B13F0070408BF10F8014B1D1108BF65
:1001400010F8015B641E05D010F8016B641E01F805
:10015000016BF9D113F0080F1EBF10F8014BAD1C55
:100160000C1B09D16D1E58BF01F801CBFAD505E073
:1001700014F8016B01F8016B6D1EF9D59142D6D3CD
:10018000704700000023002400250026103A28BFF5
:1001900078C1FBD8520728BF30C148BF0B607047F9
:1001A000642905F04782002070471FB51FBD10B5B8
:1001B00010BD05F017FB1146FFF7F7FF00F00CF933
:1001C00005F035FB03B4FFF7F2FF03BC02F04CFB74
:1001D00030BF72B662B680F308887047704700BFC0
:1001E000FEE700BFFEE700BFFEE700BFFEE7704787
:1001F00070477047704700000CB5002001900090D8
:100200006C48006840F480306A49086000BF694863
:10021000006800F4003000900198401C01900098A4
:1002200018B90198B0F5A06FF1D16248006800F4E8
:10023000003010B10120009001E0002000900098F3
:10024000012843D15C48006840F010005A4908601A
:100250000846006820F0030008600846006840F087
:1002600002000860534840685249486008464068A8
:1002700048600846406840F480604860084640682E
:1002800020F47C1048600846406840F4E81048605C
:100290000846006840F08070086000BF454800686C
:1002A00000F000700028F9D04248406820F00300B8
:1002B000404948600846406840F00200486000BF7E
:1002C0003C48406800F00C000828F9D10CBD10B57E
:1002D000FFF792FF10BD10B53648006840F00100EE
:1002E000344908600846406834490840314948604C
:1002F00008460068324908402E49086008460068F0
:1003000020F4802008600846406820F4FE00486021
:100310004FF41F008860FFF7DAFF4FF000602949B3
:10032000086010BD10B5002100200022214B5B6841
:1003300003F00C0121B1042906D0082928D107E0D7
:10034000214B224C236027E01F4B204C236023E0ED
:10035000184B5B6803F47010164B5B6803F4803233
:10036000022303EB904022B9194B4343174C2360FF
:100370000DE0104B5B6803F4003323B1144B43438F
:10038000124C236003E0104B4343104C236003E006
:100390000D4B0E4C236000BF00BF064B5B68C3F3E0
:1003A00003130C4CE15C094B1B68CB40074C2360EA
:1003B00010BD000000100240002002400000FFF8C5
:1003C000FFFFF6FE08ED00E000127A0000000020BA
:1003D00000093D000400002002F07EF84FF4FA30DE
:1003E00002F051FA012002F0D1F902F08FFA02F086
:1003F000BDFA022002F0E0F8642002F0AAF802F050
:10040000F1FD642002F0A5F802F037FD41F61F412E
:10041000632002F073FE8F2142F20F7002F0F8FEAB
:100420008F2142F20F7002F097FE03F05DF903F0A6
:1004300043FB2FE0072003F052FA17490860082019
:1004400003F04DFA15490860052003F048FA1449F5
:100450000860062003F043FA1249086003F01CFA12
:100460001149086011480078012804D103F0EDF823
:1004700000200E49087004F079FC04F05FFF0120B1
:100480000B49087000200B49087000BF084800782D
:100490000028FBD1CEE70000C0000020C4000020EF
:1004A000C8000020CC000020D00000206800002000
:1004B0006500002064000020094880470948004783
:1004C000FEE7FEE7FEE7FEE7FEE7FEE7FEE7FEE704
:1004D000FEE7FEE704480549054A064B7047000061
:1004E000D7020008ED000008780A002078100020EC
:1004F000780C0020780C002031490143314A11600A
:10050000704770B5002100230F22C47804B32D4C2E
:10051000246804F4E064C4F5E064210AC1F1040332
:10052000CA40447804FA03F1847814402143090155
:10053000254C0678A155047804F01F050124AC4031
:1005400005786D11AD0005F1E025C5F8004109E021
:10055000047804F01F050124AC401C4D0678761188
:1005600045F8264070BD1A4A0A400243154B1B1F2E
:100570001A60704739B1134A121D12680243114BB9
:100580001B1D1A6006E00F4A121D126882430D4BB4
:100590001B1D1A607047042808D14FF0E02109693B
:1005A00041F004014FF0E022116107E04FF0E0213B
:1005B000096921F004014FF0E02211617047000049
:1005C0000000FA050CED00E000E400E080E100E04E
:1005D00080FFFF1F10B50446FA48844208D101216C
:1005E000401500F01DFE0021601500F019FE17E017
:1005F000F548844208D10121001500F011FE0021C8
:10060000201500F00DFE0BE0F048844208D10121D6
:10061000C80300F005FE00214FF4004000F000FE8A
:1006200010BD30B50246002000235068E84C204041
:100630000D790C6844EA0524204350609068E54C2D
:100640002040D1E902542C434D7944EA450420432B
:100650009060D06A20F470000C7C641EE4B22343E6
:1006600040EA0350D06230BD002101600171417148
:100670008160C16001210174704721B1826842F03C
:100680000102826003E0826822F00102826070470A
:1006900021B1826842F48072826003E0826822F4B1
:1006A00080728260704710B50023CBB21AB14468E3
:1006B0001C43446002E044689C43446010BD816870
:1006C00041F0080181607047014600208A6802F00D
:1006D00008020AB1012000E000207047816841F063
:1006E000040181607047014600208A6802F004021C
:1006F0000AB1012000E00020704721B1826842F475
:10070000A002826003E0826822F4A0028260704747
:10071000014600208A6802F480020AB1012000E04C
:100720000020704710B50A4600210023416821F4DB
:100730006041531E41EA4331416010BD21B142681E
:1007400042F40062426003E0426822F400624260C8
:100750007047F0B504460D4600200021092D11DD3B
:10076000E068A5F10A0606EB4607072606FA07F138
:100770008843A5F10A0606EB460603FA06F108438C
:10078000E0600CE0206905EB4507072606FA07F153
:10079000884305EB450603FA06F108432061072A62
:1007A0000FDA606B561E06EB86071F2606FA07F166
:1007B0008843561E06EB860605FA06F10843606379
:1007C00022E00D2A0FDA206BD61F06EB86071F26C4
:1007D00006FA07F18843D61F06EB860605FA06F1EE
:1007E0000843206310E0E06AA2F10D0606EB8607DD
:1007F0001F2606FA07F18843A2F10D0606EB8606CE
:1008000005FA06F10843E062F0BD21B1826842F4C6
:100810008012826003E0826822F480128260704756
:100820000146C86C80B2704766484C30006870471B
:1008300021B1426842F48062426003E0426822F4DF
:1008400080624260704721B1426842F48052426047
:1008500003E0426822F48052426070470A46002159
:10086000816821F4E04111438160704721B18268C1
:1008700042F40042826003E0826822F40042826017
:10088000704721B1826842F40212826003E08268FC
:1008900022F4021282607047014600208A6802F446
:1008A00000120AB1012000E000207047F0B50446B4
:1008B0001546002000220026092911DDE068A1F17B
:1008C0000A0707EB470C072707FA0CF29043A1F140
:1008D0000A0707EB470703FA07F21043E0600CE052
:1008E000206901EB410C072707FA0CF2904301EB5A
:1008F000410703FA07F210432061A06BC0F30156D1
:10090000EF1C06F1010CA7EB0C0707EB870C1F2768
:1009100007FA0CF29043EF1C06F1010CA7EB0C0751
:1009200007EB870701FA07F21043A063F0BD10B58B
:100930000A4600210023816B21F44011531E41EA35
:100940000351816310BD08B5002300930090009B04
:100950000B440093009B1A6008BD08B502460020B6
:100960000090009201F12800009B1844009000982C
:10097000006880B208BD0A4600214168164B194044
:100980001143416070474162826270470A4600210C
:10099000416821F01F0111434160704740B109498E
:1009A0000831096841F40001064A0832116007E085
:1009B00004490831096821F40001024A0832116033
:1009C000704700000024014000280140003C014025
:1009D000FFFEF0FFFDF7F1FFFFFD3FFF02460020A5
:1009E00013680B400BB1012000E000207047CA43A0
:1009F0000260704770B502460020002300240B12ED
:100A00005568CEB205EA060415681D4015B10CB153
:100A1000012000E0002070BD00220A12D3430360D1
:100A20007047000010B5012000F014FC002000F019
:100A300011FC10BD2A49086070472949091F086048
:100A40007047274984310860704701460020254AD5
:100A500010884FF67F4210400843224A10807047AA
:100A6000014600201F4A10884FF68072104008434C
:100A70001C4A1080704708B500220092194A2C3A8F
:100A80000092009A02440092009A116008BD08B5D5
:100A900001460020009013482C380090009808442C
:100AA00000900098008808BD0D489C300068C0B2D6
:100AB00070470C480830008840F0010009490831AF
:100AC000088070470648A0300068C0B270470548EB
:100AD0000830008840F00200024908310880704761
:100AE00004860D422C6C004010B50446CC4884426C
:100AF00008D10121042000F093FB0021042000F024
:100B00008FFB46E0C748844208D10121082000F04D
:100B100087FB0021082000F083FB3AE0C2488442B2
:100B200008D10121102000F07BFB0021102000F0F3
:100B300077FB2EE0BD48844208D10121202000F03F
:100B40006FFB0021202000F06BFB22E0B8488442BC
:100B500008D10121402000F063FB0021402000F07B
:100B60005FFB16E0B348844208D10121802000F0E9
:100B700057FB0021802000F053FB0AE0AE4884427E
:100B800007D10121801500F04BFB0021A01500F0DA
:100B900047FB10BD10B50121084600F041FB0021C4
:100BA000012000F03DFB10BD2DE9F041024600257B
:100BB0000026002000230024002791F803C00CF039
:100BC0000F0591F803C00CF0100CBCF1000F03D01E
:100BD00091F802C04CEA050591F800C0BCF1000F85
:100BE00031D0146800202BE04FF0010C0CFA00F318
:100BF000B1F800C00CEA03069E4220D183004FF0FA
:100C00000F0C0CFA03F7BC4305FA03FC4CEA04048E
:100C100091F803C0BCF1280F06D14FF0010C0CFA7B
:100C200000FCC2F814C00AE091F803C0BCF1480F00
:100C300005D14FF0010C0CFA00FCC2F810C0401CAA
:100C40000828D1D31460B1F800C0BCF1FF0F34DD27
:100C5000546800202EE000F1080C4FF0010808FA5B
:100C60000CF3B1F800C00CEA03069E4221D18300C8
:100C70004FF00F0C0CFA03F7BC4305FA03FC4CEAE7
:100C8000040491F803C0BCF1280F05D100F1080C51
:100C900008FA0CF8C2F8148091F803C0BCF1480FB0
:100CA00007D100F1080C4FF0010808FA0CF8C2F85F
:100CB0001080401C0828CED35460BDE8F0814FF668
:100CC000FF710180022181700421C17070470246CA
:100CD000002093680B400BB1012000E0002070471A
:100CE0000146886880B2704702460020D3680B40F6
:100CF0000BB1012000E0002070470146C86880B2B7
:100D0000704701617047416170470AB1016100E0BD
:100D100041617047C16070474FF480320A4382617D
:100D20008161826182698269704702460020434B7B
:100D300018684FF68073184040EA021008433F4B92
:100D4000186070473E49C8617047F0B50A460023F5
:100D500000240021002500F00046B6F1004F02D12A
:100D6000364EF16901E0354E7168C0F3034583B238
:100D700000F44016B6F5401F08D121F070612F4EE7
:100D8000766826F070662D4F7E6012E000F48016C3
:100D9000B6F5801F06D1032606FA05F4A14341F0FB
:100DA000706106E0460D360103FA06F6B14341F0E4
:100DB000706122B1460D360103FA06F6314300F0A8
:100DC0000046B6F1004F02D11C4EF16101E01B4E0E
:100DD0007160F0BD30B500228B071C0F0F2303FAA2
:100DE00004F2164B08338C1053F824309343134C01
:100DF00008348D1044F8253023468C1053F82430E5
:100E00008C07240F00FA04F423430C4C08348D1093
:100E100044F8253030BD0A49DC31086070470000D5
:100E200000080140000C0140001001400014014086
:100E300000180140001C014000200140000001405A
:100E40000000204210B50121080700F0F6F900214A
:100E50004FF0805000F0F1F910BD2A490862704748
:100E600028490861704701460020274A106820F091
:100E7000E0000843106070472249A03108607047C5
:100E800010B502460020204B186820F003001043E4
:100E900018601E4B1B6843F004031C4C236001299F
:100EA00001D130BF00E020BF184B1B6823F00403C2
:100EB000164C236010BD1448006840F0040012492D
:100EC00008600846006840F0020008600F480068AB
:100ED00040F004000D49086000BF00BF30BF7047FC
:100EE00001460020084A52680A400AB1012000E089
:100EF000002070470449096841EA8001024A1160F4
:100F00007047000000000E420070004010ED00E04D
:100F1000DF48006840F00100DD490860084640688D
:100F2000DC490840DA49486008460068DA49084068
:100F3000D74908600846006820F480200860084609
:100F4000406820F4FE0048604FF41F00886070473E
:100F5000CF49096821F48031CD4A116011460968F2
:100F600021F480211160B0F5803F03D0B0F5802FCF
:100F70000ED106E0C649096841F48031C44A1160C7
:100F800007E0C349096841F4A021C14A116000E0AB
:100F900000BF00BF704710B50146002200230020AB
:100FA0004A11012A02D1BA4C236806E0022A02D172
:100FB000B74C236A01E0B64C636A01F01F020124BA
:100FC00094401C400CB1012000E0002010BD38B559
:100FD000002000900024002500BF3120FFF7DBFF38
:100FE00005460098401C00900098B0F5A06F01D015
:100FF000002DF2D03120FFF7CEFF08B1012400E030
:101000000024204638BD01460020A14A106820F087
:10101000F80040EAC10010607047A04908607047BE
:10102000024600209A4B586820F47C1042EA0103E3
:101030001843974B586070479849086670470146B7
:101040000020934A506820F0030008435060704726
:101050008F48406800F00C007047014600208C4A21
:10106000506820F0F00008435060704701460020AF
:10107000874A506820F4E06008435060704701469A
:101080000020834A506820F4605040EAC10050605C
:10109000704729B17E4A527A02437D4B5A7204E06E
:1010A0007B4A527A82437A4B5A7270477B49D831D5
:1010B0000860704701460020754A506820F440409F
:1010C0000843506070470021714A20321170704A05
:1010D00082F82010012802D004280AD104E001215E
:1010E0006B4A2032117005E00521694A20321170E7
:1010F00000E000BF00BF704769490860704764495D
:10110000096A0143624A11627047654944390860BF
:10111000704730B500210022002400235C4D6D682B
:1011200005F00C0121B1042905D0082923D105E0DF
:101130005C4D056022E05B4D05601FE0544D6D681D
:1011400005F47012524D6D6805F48034022505EBEC
:1011500092421CB9544D554305600BE04C4D6D68EF
:1011600005F400351DB1504D5543056002E04D4D6D
:101170005543056002E04B4D056000BF00BF444D84
:101180006D6805F0F0010909484D6B5C0568DD40AC
:1011900045603F4D6D6805F4E061090A434D6B5CA5
:1011A0004568DD4085603A4D6D6805F46051C90AB7
:1011B0003E4D6B5C4568DD40C560354D6D6805F49E
:1011C0004041890B3A4D6B5CC568B5FBF3F5056191
:1011D00030BD29B12E4A526902432D4B5A6104E0B9
:1011E0002B4A526982432A4B5A61704729B1284AD7
:1011F00092690243264B9A6104E0254A9269824330
:10120000234B9A61704729B1214AD2690243204B8E
:10121000DA6104E01E4AD26982431D4BDA617047ED
:1012200029B11B4AD2680243194BDA6004E0184A1C
:10123000D2688243164BDA60704729B1144A1269AA
:101240000243134B1A6104E0114A12698243104BA6
:101250001A61704712494039086070470F49C864E5
:1012600070470B49C87170470948406A40F0807068
:1012700007494862704701460020054A92680A40C3
:101280000AB1012000E000207047014988727047D0
:10129000001002400000FFF8FFFFF6FE000042428F
:1012A0008004424200127A0000093D00D400002070
:1012B000E400002010B50446FE48844208D1012114
:1012C000C014FFF7ADFF0021E014FFF7A9FFC4E051
:1012D000B4F1804F08D101210846FFF7AEFF00218D
:1012E0000120FFF7AAFFB8E0F348844208D10121AA
:1012F0000220FFF7A2FF00210220FFF79EFFACE0D3
:10130000EE48844208D101210420FFF796FF002116
:101310000420FFF792FFA0E0E948844208D10121B0
:101320000820FFF78AFF00210820FFF786FF94E0DE
:10133000E448844208D101211020FFF77EFF0021FC
:101340001020FFF77AFF88E0DF48844208D10121AE
:101350002020FFF772FF00212020FFF76EFF7CE0C6
:10136000DA48844208D101214014FFF759FF0021D7
:101370006014FFF755FF70E0D548844209D1012180
:10138000C804FFF74DFF00214FF40020FFF748FF8E
:1013900063E0D048844209D101210805FFF740FFEE
:1013A00000214FF48010FFF73BFF56E0CA4884420B
:1013B00009D101214805FFF733FF00214FF4001048
:1013C000FFF72EFF49E0C548844208D101214020A3
:1013D000FFF733FF00214020FFF72FFF3DE0C0481B
:1013E000844208D101218020FFF727FF00218020BF
:1013F000FFF723FF31E0BB48844208D1012180156B
:10140000FFF71BFF0021A015FFF717FF25E0B648E7
:10141000844209D101210804FFF702FF00214FF4A3
:101420008030FFF7FDFE18E0B048844209D1012169
:101430004804FFF7F5FE00214FF40030FFF7F0FEFF
:101440000BE0AB48844208D101218804FFF7E8FE95
:1014500000214FF48020FFF7E3FE10BD0022028838
:10146000944B98420ED0994B98420BD0B0F1804FDC
:1014700008D0914B984205D0904B984202D0904BA7
:10148000984204D14FF68F731A404B881A438D4B04
:10149000984207D08C4B984204D04FF6FF431A4035
:1014A000CB881A4302808B8883850B880385814B08
:1014B00098420BD0854B984208D08B4B984205D070
:1014C0008A4B984202D08A4B984201D10B7A03860C
:1014D00001238382704770B5002400220023058C0D
:1014E0004FF6FE7635400584028C8388048B4FF6D8
:1014F0008F752C40B51E2C400D882C43751E2A403C
:101500000D892A434D882A436A4DA8420BD06F4D5E
:10151000A84208D0744DA84205D0744DA84202D00C
:10152000734DA84213D14FF6F7752A404D892A43CF
:101530004FF6FB752A408D882A434FF6FF652B40F6
:101540004FF6FF552B408D892B43CD892B4383804C
:101550000483CD888586028470BD70B50024002286
:101560000023058C4FF6EF7635400584028C838886
:10157000048B48F6FF752C404FF6FF452C400D8834
:101580004FF6FF7606EA05252C434FF6DF752A4015
:101590000D8906EA05152A434D8806EA05152A43F2
:1015A000444DA84202D0494DA8421DD14FF67F7547
:1015B0002A404D894FF6FF7606EA05152A434FF675
:1015C000BF752A408D8806EA05152A434FF6FF3578
:1015D0002B404FF2FF752B408D8906EA85052B4382
:1015E000CD8906EA85052B4383800483CD88058752
:1015F000028470BD70B5002400220023058C4FF6D4
:10160000FF6635400584028C8388848B4FF68F7586
:101610002C404FF6FC752C400D882C434FF6FF559F
:101620002A400D894FF6FF7606EA05252A434D88A4
:1016300006EA05252A431F4DA84202D0234DA842A1
:101640001DD14FF2FF752A404D894FF6FF7606EA0D
:1016500005252A434FF6FF352A408D8806EA0525E1
:101660002A434EF6FF752B404DF6FF752B408D89B2
:1016700006EA05152B43CD8906EA05152B43838021
:101680008483CD888587028470BD70B500220023D5
:101690000024058C4EF6FF7635400584038C848843
:1016A000828B48F6FF752A404FF6FF452A400D8889
:1016B00020E00000002C0140000400400008004031
:1016C000000C0040001000400014004000340140B5
:1016D000004C0140005001400054014000180040FF
:1016E000001C004000200040004001400044014038
:1016F000004801404FF6FF7606EA05252A434DF6DD
:10170000FF752B400D8906EA05352B434D8806EA07
:1017100005352B43FA4DA84202D0FA4DA84208D114
:101720004BF6FF752C408D894FF6FF7606EA85153E
:101730002C4384808283CD88A0F84050038470BD00
:10174000828B4FF2FF331A408283828B4FF6FF73F6
:1017500003EA01231A4382837047F0B50C4615460D
:10176000002200210026078C4EF6FF7C07EA0C07BA
:101770000784828B018C4FF6FF7707EA043640F628
:10178000FF473A404FF6FF7707EA05273A434FF6FF
:10179000FF7707EA03373A43D94FB8420ED0D94F03
:1017A000B8420BD0B0F1804F08D0D74FB84205D027
:1017B000D64FB84202D0D64FB84206D14DF6FF7789
:1017C000394046F48057394305E047F6FF57394022
:1017D00044F48057394382830184F0BD828B4FF6F5
:1017E000F3731A408283828B0A4382837047F0B579
:1017F0000C461546002200210026078C4FF6FF6C90
:1018000007EA0C070784828B018C4FF6FF7707EA03
:1018100004264FF60C773A404FF6FF7707EA031796
:101820002F433A43B64FB8420ED0B64FB8420BD012
:10183000B0F1804F08D0B44FB84205D0B34FB84292
:1018400002D0B34FB84206D14FF6FF57394046F4A5
:101850008077394305E04FF2FF57394044F48077F1
:10186000394382830184F0BD028B4FF2FF331A406B
:101870000283028B4FF6FF7303EA01231A430283AC
:101880007047F0B50C461546002200210026078C53
:101890004FF6EF7C07EA0C070784028B018C4FF6AA
:1018A000FF7707EA041640F6FF473A404FF6FF7706
:1018B00007EA03373A434FF6FF7707EA05273A432B
:1018C0008F4FB8420ED08F4FB8420BD0B0F1804F3F
:1018D00008D08D4FB84205D08C4FB84202D08C4F03
:1018E000B84206D14FF6DF77394046F0100739434A
:1018F00005E04FF65F77394044F010073943028323
:101900000184F0BD028B4FF6F3731A400283028B01
:101910000A4302837047F0B50C46154600220021A9
:10192000068C4FF6FE773E400684028B018C4FF604
:101930000C7632407E1C06EA03162E433243704E6C
:10194000B0420ED06F4EB0420BD0B0F1804F08D0F5
:101950006D4EB04205D06D4EB04202D06C4EB042DA
:1019600006D14FF6FD76314044F00106314305E0E3
:101970004FF6F576314044F001063143028301848D
:10198000F0BD70B505460C465D4885420ED05D48F9
:1019900085420BD0B5F1804F08D05B48854205D019
:1019A0005A48854202D05A48854200D100E000BF23
:1019B000208850B92389A28861882846FFF7ABFFA9
:1019C000E1882846FFF79EFF25E0208804280AD1F9
:1019D0002389A28861882846FFF753FFE1882846BB
:1019E000FFF742FF17E0208808280AD12389A28840
:1019F00061882846FFF7FBFEE1882846FFF7EEFEE8
:101A000009E02389A28861882846FFF7A6FEE188BD
:101A10002846FFF795FE70BD2DE9F04105460C46BE
:101A200000260127608808B9022600E00026A08869
:101A3000012801D1022700E001272088A0B92389CD
:101A4000A28861882846FFF766FFE1882846FFF7ED
:101A500059FF23893A4631462846FFF712FFE188AD
:101A60002846FFF701FF13E02389A28861882846F2
:101A7000FFF707FFE1882846FFF7F6FE23893A467D
:101A800031462846FFF747FFE1882846FFF73AFF2F
:101A9000BDE8F0810A884B881A438B881A43CB88AB
:101AA0001A430B891A434B891A438B891A43A0F8AE
:101AB000442070474FF6FF71818000210180C18072
:101AC0004180017270470021018041808180C18086
:101AD000018141818181C181704700210180418064
:101AE000012181800021C180018170470021018096
:101AF00041808180C18001814181818170470000E6
:101B0000002C014000340140000400400008004067
:101B1000000C004021B1028842F00102028004E082
:101B200002884FF6FE731A400280704731B1B0F858
:101B3000442042F40042A0F8442005E0B0F84420DC
:101B4000C2F30E02A0F8442070471AB183890B43F8
:101B5000838102E083898B43838170478182704750
:101B600041EA0203A0F8483070471AB183890B4359
:101B7000838102E083898B438381704701894FF61B
:101B8000F8721140018170470A46002101894FF621
:101B90008F73194011430181704730B504460D46DB
:101BA00029462046FFF7F0FF208940F007002081FA
:101BB00030BD2DE9F04104460D4616461F46602D06
:101BC00006D13B46012231462046FFF75AFE05E08A
:101BD0003B46012231462046FFF79DFE294620461E
:101BE000FFF7D2FF208940F007002081BDE8F08197
:101BF00030B50C4600210189C9B24FF6FF7505EAE0
:101C00000325154325432943018130BD2DE9F041CA
:101C100005460E4617469846002443463A46314646
:101C20002846FFF7E5FF2C894FF6F870044044F092
:101C300007044FF68F70044044F070042C81BDE817
:101C4000F081F0B504460D4616461F463B46324627
:101C500029462046FFF7CCFF208940F480402081B0
:101C6000F0BD0185828270470A46002101884FF647
:101C70008F731940114301807047F0B50C4615462B
:101C80001E460021002200230189028B038C4FF69F
:101C9000F877394021434FF6FC473A4040F20117AC
:101CA0003A434FF6DD773B404FF6FF7707EA0617DA
:101CB0002F433B43018102830384F0BD0A46002188
:101CC000018B4FF68F7319401143018370470A4609
:101CD0000021018B48F6FF7319404FF6FF7303EAAA
:101CE00002231943018370470A460021818B4FF676
:101CF0008F7319401143818370470A460021818BFD
:101D000048F6FF7319404FF6FF7303EA02231943A5
:101D10008183704721B1028842F08002028004E092
:101D200002884FF67F731A400280704721B1828883
:101D300042F00402828004E082884FF6FB731A406E
:101D40008280704721B1828842F00802828004E0DC
:101D500082884FF6F7731A408280704721B18288DB
:101D600042F00102828004E082884FF6FE731A403E
:101D7000828070470A460021018B4FF6F7731940A5
:101D80001143018370470A460021018B4FF2FF7314
:101D900019404FF6FF7303EA02231943018370478A
:101DA0000A460021818B4FF6F77319401143818356
:101DB00070470A460021818B4FF2FF7319404FF69E
:101DC000FF7303EA02231943818370470A46002107
:101DD000018B4FF6FB7319401143018370470A468C
:101DE0000021018B4FF6FF3319404FF6FF7303EAD2
:101DF00002231943018370470A460021818B4FF665
:101E0000FB7319401143818370470A460021818B7F
:101E10004FF6FF3319404FF6FF7303EA02231943CD
:101E2000818370470A460021018B4FF67F7319406A
:101E30001143018370470A460021018BC1F30E0153
:101E40004FF6FF7303EA02231943018370470A46E2
:101E50000021818B4FF67F731940114381837047B6
:101E60000A460021818BC1F30E014FF6FF7303EA8E
:101E700002231943818370470A460021018C4FF6E3
:101E8000FD7319401143018470470A460021018CFB
:101E90004FF6F77319401143018470470A46002139
:101EA000018C4FF6DF7319404FF6FF7303EA0213FC
:101EB0001943018470470A460021018C4FF67F7355
:101EC00019404FF6FF7303EA021319430184704768
:101ED0000A460021018C4FF6FF5319404FF6FF735D
:101EE00003EA02231943018470470A460021018C4A
:101EF0004FF2FF7319404FF6FF7303EA02231943B1
:101F0000018470470A460021018C4DF6FF73194089
:101F10004FF6FF7303EA023319430184704730B56B
:101F2000002301248C40A3B2048C9C430484048CC1
:101F300002FA01F5ADB22C43048430BD30B5002364
:101F400004248C40A3B2048C9C430484048C02FAC5
:101F500001F5ADB22C43048430BD70B503460020BA
:101F600000241846183001258D40ACB21D8CA543C5
:101F70001D8409B1082909D100EB6100056825F02D
:101F8000700505600568154305600EE00D1FC5F37B
:101F90004E052844056825F4E045056005684FF6C0
:101FA000FF7606EA02263543056070BD21B102883E
:101FB00042F00202028004E002884FF6FD731A40EC
:101FC0000280704721B1028842F00402028004E0DE
:101FD00002884FF6FB731A400280704721B1828855
:101FE00042F08002828004E082884FF67F731A40BC
:101FF0008280704702884FF6F7731A400280028889
:102000000A430280704782884FF68F731A4082809D
:1020100082880A438280704702894FF6F8731A401B
:10202000028102890A430281704702894FF67F7359
:102030001A40028102890A430281704781847047F5
:102040008185704781867047018770478187704717
:10205000A0F84010704702884FF6FF431A400280F4
:1020600002880A43028070470146888E7047014605
:10207000088F70470146888F70470146B1F84000CD
:1020800070470146888C70470146088D70470246AC
:102090000020138A0B400BB1012000E000207047A4
:1020A000CA430282704730B5024600200023002454
:1020B000158A05EA0103958905EA010413B10CB1FB
:1020C000012000E0002030BDCA43028270470000BA
:1020D00010B50446FB48844209D101218803FFF76B
:1020E0009FF800214FF48040FFF79AF832E0F6485D
:1020F000844209D101214804FFF79FF800214FF4E1
:102100000030FFF79AF825E0F048844209D1012118
:102110008804FFF792F800214FF48020FFF78DF834
:1021200018E0EB48844209D10121C804FFF785F883
:1021300000214FF40020FFF780F80BE0E5488442CF
:1021400008D101210805FFF778F800214FF480102D
:10215000FFF773F810BD2DE9F04786B005460E462F
:102160000024A24600BFA1460027B08900B100BFED
:102170002F462C8A4CF6FF700440F08804432C82D2
:10218000AC894EF6F3100440B08831890843718958
:1021900008430443AC81AC8A4FF6FF400440B08949
:1021A0000443AC8201A8FEF7B4FFC648874202D1BF
:1021B000DDF810A001E0DDF80CA0A88900F40040D3
:1021C00040B10AEBCA0000EB0A1031684900B0FBCD
:1021D000F1F807E00AEBCA0000EB0A103168890049
:1021E000B0FBF1F86420B8FBF0F004012009642191
:1021F00001FB1089A88900F4004040B1322000EBB7
:10220000C900B0FBF1F000F00700044308E0322001
:1022100000EB09106421B0FBF1F000F00F00044363
:102220002C8106B0BDE8F0874FF416510160002103
:102230008180C18001810C21418100218181704711
:1022400010B502460020108A4FF2FF0318400B8899
:102250004C8823438C882343CC8823431843108223
:1022600010BD0021018041808180C180704721B173
:10227000828942F40052828104E082894DF6FF7324
:102280001A4082817047F0B50346002400260025DD
:10229000002040F66A17B94200D100BF1846C1F3CA
:1022A000421401F01F06012707FA06F5012C01D19F
:1022B0000C3004E0022C01D1103000E014301AB1CF
:1022C00007682F43076002E00768AF430760F0BD6F
:1022D0001AB1838A0B43838202E0838A8B43838211
:1022E0007047028A4FF6F0731A400282028A0A434C
:1022F0000282704782894FF2FF731A40828182897D
:102300000A438281704721B1828942F002028281B0
:1023100004E082894FF6FD731A4082817047028A79
:102320004FF6DF731A400282028A0A430282704724
:1023300021B1028A42F48042028204E0028A4BF612
:10234000FF731A4002827047C1F30802828070470F
:1023500001468888C0F308007047818941F0010177
:1023600081817047028BD2B20283028B42EA012242
:1023700002837047028B02F47F420283028B0A437E
:102380000283704721B1828A42F02002828204E0F7
:10239000828A4FF6DF731A408282704721B1828AA7
:1023A00042F01002828204E0828A4FF6EF731A40F4
:1023B0008282704721B1828A42F00802828204E060
:1023C000828A4FF6F7731A408282704721B1828960
:1023D00042F40042828103E08289C2F30E028281CC
:1023E000704721B1828A42F40062828204E0828ACC
:1023F0004FF2FF731A4082827047828A4FF6FB7356
:102400001A408282828A0A438282704721B1828A7C
:1024100042F00202828204E0828A4FF6FD731A4083
:102420008282704702460020B1F5007F00D100BFD4
:1024300013880B400BB1012000E00020704701F42D
:102440000072B2F5007F00D100BFCA43028070471E
:1024500070B50246002400230025002040F66A16CD
:10246000B14200D100BFC1F3421501F01F030126A4
:1024700006FA03F3012D02D19689334006E0022DBE
:1024800002D1168A334001E0968A33400C120126AD
:1024900006FA04F41688344013B10CB1012000E0B0
:1024A000002070BD10B50022002340F66A14A1423E
:1024B00000D100BF0A1201249440A3B2DC4304807F
:1024C00010BD0000003801400044004000480040BA
:1024D000004C00400050004010B56FF00400FEF7C3
:1024E0005AF82E4800682E49B0FBF1F02D490870CB
:1024F0000846007800EB4001C1EBC0104FF6FF71B9
:1025000001EAC0002849088010BD0146254A12781A
:102510004A434FF0E0235A6100229A611A46126939
:1025200042F001021A6100BF4FF0E022106900F092
:1025300001021AB100F48032002AF5D04FF0E022F7
:10254000126922F001024FF0E0231A6100229A6121
:1025500070470146144A12884A434FF0E0235A61FB
:1025600000229A611A46126942F001021A6100BF04
:102570004FF0E022106900F001021AB100F480323D
:10258000002AF5D04FF0E022126922F001024FF04C
:10259000E0231A6100229A617047000000000020C9
:1025A00000127A00E8000020EA000020A34A0A4056
:1025B0000243A34B1A6070470146072323EA010236
:1025C00012029F4B1B1D18684FF6FF0318409D4BCE
:1025D000184310439A4B1B1D186070472DE9F041BA
:1025E0000746884614461D462846FFF7E5FFC5F115
:1025F000040007FA00F60F20284100EA080006430D
:1026000006F00F06E21704EBD2625211920002F1BB
:10261000E022D2F800212146E31704EBD3635B11DB
:10262000A4EB431C012303FA0CF31A432046E317DF
:1026300004EBD3635B119B0003F1E023C3F800219B
:102640008148005D40EA06107F490855BDE8F081E9
:1026500070B504460B46CE1701EB9676C6F387009D
:10266000CE1701EB9676B610A1EB8606B606350EB0
:10267000764B9B6943F00103744EB3614FEAB63366
:1026800053F820300F26AE40B343714E46F8203049
:10269000334653F8203004FA05F61E436C4B43F8DA
:1026A00020606C4B1B6801268E403343694E3360BB
:1026B00002F0010343B1674B0C331B6801268E40C7
:1026C0003343644E0C36336002F0020343B1614B76
:1026D00008331E6801238B401E435E4B08331E6087
:1026E00070BD00B5002059490861C86014204861D8
:1026F00000208861C8610846006840F00100086059
:1027000008464068544908405049486008460068F7
:10271000524908404D4908600846006820F480206E
:1027200008600846406820F4FE0048600020886089
:1027300000214FF00060FFF739FF00BD10B54048A1
:102740000830006840F004003D49083108603F4807
:10275000C06940F080503D49C8614148406840F43C
:1027600080703F4948600846006840F004000860F7
:102770000846006840F002000860FDF729FD10BD22
:102780003048001D2E49091D086070470146490662
:102790002E4A926942F001022C4B9A612C4A083A67
:1027A000526822F0E0622A4B083B5A601A4652688F
:1027B0000A435A60704730B504460025FFF791FF81
:1027C0002248006840F480302049086000BF1F485C
:1027D0000068400C0028FAD04FF480601B49486024
:1027E000A01EC4B20846406840EA844048600846DB
:1027F000406840F4803048601A48006840F0320079
:10280000184908601148006840F080700F4908605E
:1028100000BF0E480068400E0028FAD00B48406800
:1028200040F002000949486005E008484068C0F3EC
:10283000870505F00305022DF7D130BD80FFFF1F8E
:1028400008ED00E00000FA0500E400E0001002409E
:1028500008000140000401400000FFF8FFFFF6FE01
:102860000070004000200240014600BF704700BFDA
:10287000244A128802F04002002AF9D0C2B2214B49
:102880001B1D1A80704710B586B00446012144F222
:102890000400FEF7ABFC4FF40070ADF81400032009
:1028A0008DF8160018208DF8170005A91648FEF7B8
:1028B0007BF94FF48060ADF8140004208DF8170008
:1028C00005A91148FEF770F901940020ADF8080041
:1028D000ADF80A00ADF80C00ADF810000C20ADF812
:1028E0000E0001A90748FFF736FC002240F22551EF
:1028F0000448FFF7C8FC01210248FFF7B8FC06B006
:1029000010BD0000003801400008014008B5012159
:102910000420FEF76BFC1020ADF800008DF80300DA
:1029200003208DF8020069460C48FEF73DF908BD0A
:1029300018B900210A4A11600FE00A490968491CC8
:10294000084A1160814208D105490968C943064A0D
:10295000C2F890110021034A11607047000801403D
:1029600090012142F00000200000214208B5012121
:102970000420FEF73BFC6020ADF8000048208DF8F5
:10298000030069467748FEF70FF901211020FEF792
:102990002DFC4FF46040ADF8000048208DF8030096
:1029A00069467148FEF700F90120FEF756FA00204B
:1029B000FEF789FB0020FEF740F80020FEF74DFAF5
:1029C00008BD01466948006828B969480088401C6C
:1029D000674A108002E00020654A10806348006862
:1029E00028B96448007810B90120624A1070624822
:1029F0000078B0B95F480078012807D15F480078B7
:102A0000401C5E4A107001205B4A10705B480078E1
:102A1000022806D10020594A1070594A108002201D
:102A2000704752480068012804D10020514A1070B4
:102A3000514A10705148007801281CD15048008834
:102A4000401C4F4A10801046008888420ADD4848E2
:102A50000088884206DA0020484A1070484A1080F0
:102A60000120DDE742480088884204DD0020434A17
:102A70001070434A10800020D2E7424800780028B6
:102A800031D03A48006870B13F48006858B13748C3
:102A9000001D006838B13C48001F006818B13A4872
:102AA00008380068F8B90020364A10702F480068CE
:102AB00008B9012115E03448006808B9022110E086
:102AC00031480838006808B903210AE02748001D8A
:102AD000006808B9042104E02B48001F006800B911
:102AE0000521C8B2704721480068012814D1264842
:102AF0000068012810D11D48001D006801280BD175
:102B00002148001F0068012806D11F4808380068C6
:102B1000012801D11B4A10700020E3E71B48008800
:102B200040B91248006828B919480088401C184963
:102B3000088002E000201649088015480088C8284F
:102B400007DD01201149088000201149088001207B
:102B500070470E480088012802D100200B490880E8
:102B60000020F5E700080140001001401401214257
:102B7000FA000020F4000020F5000020F6000020FC
:102B8000F8000020FC0000203C012242000100204F
:102B9000FE00002010B50A461AB10123FE4C236046
:102BA00002E00023FC4C2360002114E00023FB4CD6
:102BB000236000F080031BB10123241F236003E086
:102BC0000023F64C241F23600123F44C23604306AA
:102BD000180E4B1CD9B20829E8DB0123EE4C236008
:102BE00010BD30B500241CE004F1B001C8B20021D2
:102BF000FFF7D0FF00210846FFF7CCFF002110208F
:102C0000FFF7C8FF002508E0E54901EBC501085DB5
:102C10000121FFF7BFFF681CC5B2802DF4DB601CEB
:102C2000C4B2082CE0DB30BD00B500218D20FFF7D9
:102C3000B1FF00211420FFF7ADFF0021AF20FFF707
:102C4000A9FF00BD00B500218D20FFF7A3FF0021E3
:102C50001020FFF79FFF0021AE20FFF79BFF00BD74
:102C600030B500240CE0002506E00020CC4901EB43
:102C7000C5010855681CC5B2802DF6DB601CC4B2C6
:102C8000082CF0DBFFF7ADFF30BDF0B51446002691
:102C90007F2801DC3F2900DDF0BD0B46CF1701EB9B
:102CA0005777FF10C7F10707FAB2CF1701EB577735
:102CB000FF10A1EBC707FDB2C5F107070123BB4019
:102CC000DEB24CB1B64B03EBC0039B5C3343B44F55
:102CD00007EBC007BB5408E0B14B03EBC0039B5CA0
:102CE000B343AF4F07EBC007BB5400BFD4E72DE998
:102CF000F04F80460C4615461E46A346A5F120001F
:102D0000C5B200273EE00C2E07D105EB4500A549D2
:102D100001EB800010F8079004E0A34800EB0510D9
:102D200010F807904FF0000A26E009F0800028B163
:102D300021464046099AFFF7A8FF09E0099808B91B
:102D4000012000E00020024621464046FFF79DFF9B
:102D50004FEA49604FEA1069601CC4B2A4EB0B0053
:102D6000B04205D15C4608F1010000F0FF0806E022
:102D70000AF1010000F0FF0ABAF1080FD5DB00BF2D
:102D8000781CC7B2B742BEDBBDE8F08F10B5024673
:102D9000012000E050430B00A1F10104E1B2F9D1A0
:102DA00010BD2DE9FF4F81B0074691461E460E9D8E
:102DB0004FF0000A002439E0301B401EC1B20A2047
:102DC000FFF7E4FFB9FBF0F00A21B0FBF1F201FBE1
:102DD0001208BAF1000F16D1701EA04213DDB8F12F
:102DE000000F0ED10120AB4605EBDB71491001FB52
:102DF00004710090C8B22B4620220299FFF777FF9A
:102E000012E04FF0010A0120AB4605EBDB714910DF
:102E100001FB04710090C8B208F13001CAB22B4620
:102E20000299FFF764FF00BF601CC4B2B442C3DB69
:102E300005B0BDE8F08F78B505460E46144618E09B
:102E40007A2D03DD002506F11000C6B23A2E04DD0E
:102E5000002005460646FFF703FF01200090227878
:102E60000C2331462846FFF742FF05F10800C5B2A2
:102E7000641C20780028E3D178BD08B50121082022
:102E8000FEF7B4F93820ADF8000010208DF80300EB
:102E900002208DF8020069464448FDF785FE0121B5
:102EA0000420FEF7A3F94FF40040ADF80000022023
:102EB0008DF8020010208DF8030069463C48FDF7AC
:102EC00073FE0120FDF7C9FF0020FEF7FCF800208B
:102ED000FDF7B3FD0020FDF7C0FF00202F490839A2
:102EE00008606420FFF735FB01203249C1F88C01EE
:102EF0000021AE20FFF74EFE0021D520FFF74AFE4D
:102F000000215020FFF746FE0021A820FFF742FED7
:102F100000213F20FFF73EFE0021D320FFF73AFEBD
:102F200000210846FFF736FE00214020FFF732FE61
:102F300000218D20FFF72EFE00211420FFF72AFE2E
:102F400000212020FFF726FE00210220FFF722FEAD
:102F50000021A120FFF71EFE0021C020FFF71AFE6E
:102F60000021DA20FFF716FE00211220FFF712FEE3
:102F700000218120FFF70EFE0021EF20FFF70AFE5F
:102F80000021D920FFF706FE0021F120FFF702FE05
:102F90000021DB2010E00000BC012142948121428D
:102FA000E40100206A750008DE790008000C014089
:102FB0000008014000802142FFF7ECFD0021302095
:102FC000FFF7E8FD0021A420FFF7E4FD0021A62083
:102FD000FFF7E0FD0021AF20FFF7DCFDFFF740FE2B
:102FE00008BD000000B587B001214FF40170FEF765
:102FF000FDF84FF40040FEF75DF88020ADF80400C6
:1030000000208DF8070001A93648FDF7CDFD3648B0
:10301000FDF7E0FA002002908DF80C008DF80D000D
:103020004FF4602004900020059001208DF81800D6
:1030300002A92D48FDF7F5FA01212B48FDF71DFBEC
:103040002948FDF73CFB00BF2748FDF73DFB002862
:10305000FAD12548FDF742FB00BF2348FDF743FBAB
:103060000028FAD107B000BD10B50446072301229D
:1030700021461D48FDF76DFB01211B48FDF73DFB77
:1030800000BF02211848FDF7A9FC0028F9D0164816
:10309000FDF7C6FB10BD2DE9F04F85B00720FFF707
:1030A000E3FF019003F086FB4FF066320F4BCDE952
:1030B000020103F093FB804600220D4B03F08EFBD0
:1030C000064600220B4B03F089FB044600220A4B04
:1030D00003F0D2F9824603F027FB0490049805B070
:1030E000BDE8F08F000801400024014066660A40F8
:1030F00000002640000059400000B0407FB5054662
:103100000C4601210846FEF77EF8ADF80850ADF8F0
:1031100004400020ADF80A00ADF8060001A94FF008
:103120008040FEF79BF9012211469007FEF70DFD46
:103130001C208DF8000000208DF8010001208DF882
:1031400002008DF803006846FDF7DBF901218807CE
:10315000FEF7E0FC7FBD000030B589B005460C46A7
:1031600001210420FEF74FF801210820FEF73EF868
:103170004FF47070ADF8200018208DF82300022065
:103180008DF8220008A94D48FDF70EFDADF8185046
:10319000ADF814400020ADF81A00ADF8160005A9EE
:1031A0004748FEF75BF96020ADF804000120ADF858
:1031B00006000020ADF80A00ADF80C0001A9404857
:1031C000FEF789F901A93E48FEF7C7F901A93C4875
:1031D000FEF710FA01A93A48FEF757FA08213848D5
:1031E000FEF7C8FD08213648FEF7CDFD082134481A
:1031F000FEF7D6FD08213248FEF7DBFD01213048FD
:10320000FEF788FD01212E48FEF784FC09B030BD91
:103210002C4A926942F400622A4B9A611A469269DA
:1032200042F004029A61284A12684FF20F039A434F
:10323000254B1A601A4612684BF20B031A43224BB5
:103240001A60224A1080121F1180204A103A1288F8
:1032500042F4C0421D4B103B1A801A1F128842F0E4
:1032600060021B1F1A801A1D128842F400621B1D87
:103270001A801A1F128842F008021B1F1A80134A74
:103280000C3A128842F48052104B0C3B1A801A46BA
:10329000128842F001021A800C4A1832128842F455
:1032A00000420A4B18331A808022084B2C3B1A80AC
:1032B0001A46128842F001021A807047000C014041
:1032C0000008004000100240040801402C2C01407E
:1032D00010B586B0044601210820FDF787FF0121C3
:1032E0008804FDF790FF4FF48060ADF814000320D0
:1032F0008DF8160018208DF8170005A91F48FDF756
:1033000053FC4FF40060ADF8140004208DF8170052
:1033100005A91A48FDF748FC27208DF80000002079
:103320008DF8010001208DF802008DF80300684639
:10333000FDF7E7F801940020ADF80800ADF80A00A9
:10334000ADF80C00ADF810000C20ADF80E0001A98E
:103350000B48FEF700FF012240F225510848FEF716
:1033600092FF01210648FEF782FF06B010BD10B59E
:1033700040F225510248FFF76BF810BD000C0140E8
:1033800000480040C848C9494860C948486070477B
:10339000C648006940F08000C44908617047C348CE
:1033A000C16801F0010008B10120704701F004007C
:1033B00008B10220F9E701F0100008B10320F4E79A
:1033C0000020F2E770B5044600BFFFF7E8FF0546AE
:1033D000012D00D006E00120FFF797F8601E84B2AF
:1033E000002CF2D100BF04B9FF25284670BD70B58E
:1033F0000546002445F6FF70FFF7E4FF0446C4B914
:10340000AA48006940F00200A849086108464561E1
:10341000006940F04000086145F6FF70FFF7D2FFF9
:103420000446012C05D0A148006920F002009F4904
:103430000861204670BD70B505460E46FF20FFF7B7
:10344000C1FF044694B99948006940F001009749CA
:1034500008612E80FF20FFF7B5FF0446012C05D040
:103460009248006920F0010090490861204670BD33
:103470000146088870472DE9F04105460E4617467B
:10348000002407E036F814102846FFF7D4FFAD1CDF
:10349000601C84B2BC42F5DBBDE8F08130B5034668
:1034A0000C461546002207E01846FFF7E1FF24F816
:1034B00012009B1C501C82B2AA42F5DB30BD2DE9E4
:1034C000F05F80468A461746B8F1006F02D379480C
:1034D000804501D3BDE8F09FFFF754FFA8F1006BD2
:1034E0004FEA9B25CBF34809C9F50074A74200DCDD
:1034F0003C464EE04FF0006101EB85208A146E4996
:10350000FFF7CCFF00260BE009EB06006A4931F813
:1035100010004FF6FF71884200D003E0701C86B2A5
:10352000A642F1DB00BFA6421BDA4FF0006101EBBF
:103530008520FFF75CFF002608E03AF8160006EB4E
:1035400009015D4A22F81100701C86B2A642F4DB24
:103550004FF0006101EB85208A145749FFF78BFF7C
:1035600004E0224651464046FFF785FFA74200D1BE
:1035700010E06D1C4FF000090AEB440A08EB440808
:10358000381B87B2B7F5007F02DD4FF4007400E00E
:103590003C46AFE700BFFFF7FBFE00BF9AE713B55D
:1035A0000446012201A92046FFF789FF1CBD10B582
:1035B0000A2242494248FFF771FF404800884FF60F
:1035C000FF71884218D13D484088884214D13B4859
:1035D0008088884210D13948C08888420CD1394847
:1035E000394908600020394908603948394908607C
:1035F00039483A49086027E03049088803F078FDE7
:103600000446374903F05EFC2F4908602B4948887F
:1036100003F06EFD0446324903F054FC2B49086068
:103620002649888803F064FD04462D4903F04AFCCE
:10363000284908602149C88803F05AFD04462849F2
:1036400003F040FC2549086010BD10B524491E4810
:10365000006803F095FD044603F012FD214908803F
:103660001F491A48006803F08BFD044603F008FD6B
:103670001C4948801A491748006803F081FD044638
:1036800003F0FEFC1749888015491448006803F0D0
:1036900077FD044603F0F4FC1249C8800A2208486A
:1036A000FFF70DFF10BD0000230167450020024019
:1036B000AB89EFCD00000108E4050020BC0100202B
:1036C00000E000080000AF436C0000207000002004
:1036D00000008C42740000203333333F7800002018
:1036E0000000C842D0010020FA48806940F0040080
:1036F000F84988610846806940F008008861F6480A
:10370000006820F47020F44908600846006840F41E
:1037100040300860F1480068C0F31300EF490860CA
:103720000846006840F04E500860704738B50446BF
:10373000012000900020EA494870012000902DE00F
:10374000BDF80000204018B10120E649086002E001
:103750000020E44908600120E34908600520FEF7E5
:10376000D4FE0020E149C1F8B0010520FEF7CDFEEE
:103770000120DE49C1F8B001DD48D0F8340130B194
:10378000D7484078BDF800100843D5494870BDF8C7
:1037900000004FF6FF7101EA40000090BDF8000004
:1037A000FF28CDDD1020FEF7B0FE38BD10B500209B
:1037B000CC49091D0860CF490878FFF7B7FFCD490C
:1037C0004878FFF7B3FF0120C949C1F8BC01C448DC
:1037D0004078732801D1002010BD0120FCE71CB502
:1037E00000200190012000900020BE49091D0860C2
:1037F000C0490878FFF79AFFBE494878FFF796FF5F
:103800000220019035E00120009026E00120B64919
:1038100008600520FEF779FE0020B449C1F8B00128
:103820000520FEF772FE0120B049C1F8B001B04892
:10383000D0F8340150B1AA489DF80410405CBDF89E
:1038400000100843A6499DF804208854BDF80000E4
:103850004FF6FF7101EA40000090BDF80000FF281C
:10386000D4DD1020FEF751FE9DF80400401CC0B2CC
:1038700001909DF804000928C5DB01209949091D24
:1038800008601CBD002004E00021954A1154411C31
:10389000C8B20928F8DB704710B5FFF7F3FFFFF750
:1038A0009EFF8F48C0788E49097940EA01209249ED
:1038B000088000240FE0914810F81400401E0121F8
:1038C00001FA00F08C490988084010B9601CC0B2A8
:1038D00010BD601CC4B2102CEDDB0020F8E70146DF
:1038E0007F48405C704770B505460C4600207D4916
:1038F000091D08601020FEF708FE0120FFF716FFE3
:103900004220FFF713FF0020FFF710FF2846FFF7C4
:103910000DFF2046FFF70AFF0020FFF707FF0020FA
:10392000FFF704FF0020FFF701FF0020FFF7FEFE76
:1039300001206F49C1F8BC011020FEF7E6FD70BD03
:1039400010B500206749091D08601020FEF7DDFD55
:103950000120FFF7EBFE4220FFF7E8FE0020FFF713
:10396000E5FE0020FFF7E2FE0020FFF7DFFE01206A
:103970005F49C1F8BC011020FEF7C7FD10BD10B5AE
:1039800000205849091D08601020FEF7BEFD0120E7
:10399000FFF7CCFE4320FFF7C9FE0020FFF7C6FE6D
:1039A0000120FFF7C3FE0020FFF7C0FE0020FFF755
:1039B000BDFE0020FFF7BAFE0020FFF7B7FE002093
:1039C000FFF7B4FE01204A49C1F8BC011020FEF700
:1039D0009CFD10BD10B500204249091D0860012062
:1039E000FFF7A4FE4420FFF7A1FE0020FFF79EFE94
:1039F0000020FFF79BFE0320FFF798FE0020FFF753
:103A000095FE0020FFF792FE0020FFF78FFE0020BA
:103A1000FFF78CFE01203649C1F8BC011020FEF7EB
:103A200074FD10BD10B500202E49091D086010203E
:103A3000FEF76BFD0120FFF779FE4D20FFF776FEC4
:103A40000020FFF773FE0020FFF770FE0120FFF754
:103A50006DFE01202649C1F8BC011020FEF755FD7E
:103A600010BD10B500201F49091D08601020FEF789
:103A70004CFD0120FFF75AFE4320FFF757FE0020C0
:103A8000FFF754FE0020FFF751FE5A20FFF74EFECD
:103A90005A20FFF74BFE5A20FFF748FE5A20FFF747
:103AA00045FE5A20FFF742FE01201149C1F8BC0132
:103AB0001020FEF72AFD10BD10B5FFF741FFFFF7FC
:103AC0003FFFFFF73DFFFFF75AFFFFF783FFFFF7C9
:103AD000C8FF10BD0010024004080140040C014062
:103AE000E4090020B8812142B001214200002142B6
:103AF0000080214204010020020100200601002074
:103B00002DE9FF4F97B00D4616461F46179803F054
:103B10003FF9CDE90E01384603F03AF9CDE9080145
:103B200002F0F4FA4FF04042FE4BCDE90A0102F0F8
:103B300055FECDE90C01DDE90E2303F03FF8CDE998
:103B4000100102F0B7FB8046284603F021F9CDE9C9
:103B50000E01384603F01CF9CDE9080102F02CFBF8
:103B60004FF04042EF4BCDE90A0102F037FECDE9BC
:103B70000C01DDE90E2303F021F8CDE9100102F07C
:103B800099FB81464946484603F0FAFA41460F90B0
:103B9000404603F0F5FAE4490D9003F0EEFB0E9079
:103BA0000F9903F0F5FB4FF08041109003F08AF974
:103BB000DE49119003F086F982464946484603F0F3
:103BC000DFFA41461190404603F0DAFA109011995D
:103BD00003F00AF9834649464FF0404003F0D0FA1B
:103BE0005146119003F0CCFA04464146404603F09A
:103BF000C7FA51461190504603F0C2FA109011993D
:103C000003F0C6FB169059464FF0814003F0B8FA16
:103C10000E90169903F0B4FA21461090204603F056
:103C2000AFFA0F90109903F0B3FB0021119003F04D
:103C300073FA0BD8BE480068BE490860BE480068E9
:103C4000BE49086000201BB0BDE8F08F584603F065
:103C50009FF8CDE90E0159464FF0814003F090FAEC
:103C60000090169903F08CFA21460290204603F04A
:103C700087FA0190029903F08BFB039003F088F818
:103C8000CDE9040102F0F0FACDE9080184F000402A
:103C9000059003F07DF8CDE90601DDE9082302F087
:103CA0003BFB00224FF08043CDE90A0102F0E4FB28
:103CB000CDE90C01DDE90E2302F0DEFBCDE91001B8
:103CC00002F0F8FA1590159803F062F8CDE90A01B0
:103CD00002F0DEF800229A4BCDE90C0102F07EFDE5
:103CE000984A994BCDE90E0102F0C6FBCDE91001CF
:103CF00002F0E0FA15909549159803F00DFB01D2FA
:103D0000924815909249159803F006FA01D290480E
:103D100015904946484603F033FA41460F90404615
:103D200003F02EFA8B490D9003F027FB0E900F99AC
:103D300003F02EFB4FF08041109003F0C3F886494A
:103D4000119003F0BFF882464946484603F018FA3E
:103D500041461190404603F013FA1090119903F078
:103D600043F8834649464FF0404003F009FA514674
:103D7000119003F005FA04464146404603F000FA6C
:103D800051461190504603F0FBF91090119903F041
:103D9000FFFA169059464FF0814003F0F1F90E906A
:103DA000169903F0EDF921461090204603F0E8F94A
:103DB0000F90109903F0ECFA0021119003F0ACF988
:103DC00009D85B4800685B4908605B4800685B494C
:103DD0000860002037E7584602F0DAFFCDE90E010F
:103DE00059464FF0814003F0CBF90090169903F04B
:103DF000C7F921460290204603F0C2F901900299CA
:103E000003F0C6FA039002F0C3FFCDE9040102F00B
:103E10002BFACDE9080184F00040059002F0B8FFCC
:103E2000CDE90601DDE9082302F0C8FE00224FF0CB
:103E30008043CDE90A0102F01FFBCDE90C01DDE969
:103E40000E2302F019FBCDE9100102F033FA1290B3
:103E5000129802F09DFFCDE90A0102F019F8002244
:103E6000374BCDE90C0102F0B9FC364A364BCDE9AF
:103E70000E0102F001FBCDE9100102F01BFA1290D5
:103E80003249129803F048FA01D230481490304970
:103E9000129803F041F901D22D4814901599129807
:103EA00003F076FA14902949149803F035FA01D2F8
:103EB000264814902649149803F02EF901D224487C
:103EC0001490149802F064FFCDE90E01159802F0E9
:103ED0005FFFCDE90A012149384603F051F9059009
:103EE00002F056FF174A184BCDE9060102F0C4FA5A
:103EF000CDE90801DDE90A2302F060FECDE90C01FD
:103F0000DDE90E2302F05AFECDE9100102F0D2F9EC
:103F100013900E49139803F0FFF901D20B48139048
:103F20000B491DE0F528AC3F1BE8A1BB3D0AD73D7E
:103F300048010020A00000204C010020A400002027
:103F400000806640F1D4C853FB2109400000B44210
:103F50000000B4C21BE8A13B77BE9F3D0000344384
:103F6000139803F0D9F801D2FA481390FA49304671
:103F700003F006F9F949119003F0FFF9F8490860D8
:103F8000F849159803F004FAF349109003F0F8F893
:103F9000F549119003F0F1F9F4490860EE491498DD
:103FA00003F0EEF8F249119002F01EFFF1490860AB
:103FB000E949139803F0E4F8E849119002F014FF7E
:103FC000ED490860E449249803F0DAF8EB491190D0
:103FD00003F0D3F9EA490860EA480068EA49086052
:103FE000EA480068EA49086000202CE62DE9F0471D
:103FF00006460F4614461D46DDE90889E548016876
:10400000304602F0F1FEE34908603946E2480068B4
:1040100002F0EAFEE04908602146E048006802F04C
:10402000E3FEDE4908602946DD48006802F0DCFE58
:10403000DB4908604146DB48006802F0D5FED949FB
:1040400008604946D848006802F0CEFED6490860AC
:10405000D048006803F014F8D4490880CE480068BE
:1040600003F00EF8D149091D0880CC48006803F020
:1040700007F8CE4908310880C948006803F000F805
:10408000CA490C310880C748006802F0F9FFC849E6
:104090000880C548006802F0F3FFC5490C3108806C
:1040A000BDE8F08770B5C348006802F0CDFF064652
:1040B000C048006880F00045284602F0C5FF04466D
:1040C000204602F0FDFF0546BB480168284603F084
:1040D00023F904D2204602F0F3FFB74908603046C6
:1040E00002F0EEFF0546B4480168284603F014F8D4
:1040F00004D2304602F0E4FFAF490860204602F0E7
:10410000DFFF0546AD480168284603F005F904D2F3
:10411000204602F0D5FFA9490860304602F0D0FFE2
:104120000546A6480168284602F0F6FF04D230464C
:1041300002F0C6FFA1490860204602F0C1FF054613
:104140009F480168284603F0E7F804D2204602F0B1
:10415000B7FF9B490860304602F0B2FF0546984819
:104160000168284602F0D8FF04D2304602F0A8FFCA
:1041700093490860204602F0A3FF05469148016874
:10418000284603F0C9F804D2204602F099FF8D4971
:104190000860304602F094FF05468A4801682846C8
:1041A00002F0BAFF04D2304602F08AFF8549086067
:1041B000204602F085FF054683480168284603F043
:1041C000ABF804D2204602F07BFF7F4908603046FE
:1041D00002F076FF05467C480168284602F09CFF05
:1041E00004D2304602F06CFF77490860204602F0A6
:1041F00067FF054675480168284603F08DF804D22C
:10420000204602F05DFF71490860304602F058FF19
:1042100005466E480168284602F07EFF04D230460B
:1042200002F04EFF6949086070BD2DE9F047044671
:104230000D462946204603F0A0F865490860084667
:1042400001686448006802F0CFFD62490860624876
:1042500001685F48006803F09BF881465F48016889
:10426000484602F08DFF80465D4902F02BFE06466F
:10427000584801685B48006802F082FF824658494E
:1042800002F020FE8046524801685748006802F05C
:1042900077FF8246524902F015FE8146414602F000
:1042A000A3FD0746314602F09FFD5049086048488B
:1042B0000068494908604D480068BDE8F0872DE96D
:1042C000F04704460D462946204603F056F8484973
:1042D0000860084601684748006802F085FD4549C6
:1042E0000860454801684248006803F051F881467B
:1042F0003A480168484602F043FF8046384902F0D8
:10430000E1FD06463B4801683648006802F038FF88
:104310008246334902F0D6FD80463548016832486E
:10432000006802F02DFF82462D4902F0CBFD814648
:10433000414602F059FD0746314602F055FD2F492E
:1043400008602B4800682C4908602C480068BDE8CC
:10435000F08700000000B4C2508DA34000803B44B1
:10436000880000200000B442004045448C0000203A
:104370000040334490000020940000200000484496
:104380009C000020A000002048010020A400002084
:104390004C01002044000020480000204C00002078
:1043A0005000002054000020580000203408004035
:1043B000342C01405C0000202C0000203000002044
:1043C00034000020380000203C0000204000002085
:1043D000A0010020A8010020AC010020BC000020AA
:1043E0000000C842B8000020B4000020A401002052
:1043F00090010020980100209C01002094010020E1
:104400002DE9F04704460D462946204602F0B5FF47
:10441000FB49086008460168FA48006802F0E4FCBD
:10442000F8490860F8480168F548006802F0B0FFF4
:104430008146F6480168484602F0A2FE8046F449EB
:1044400002F040FD0646EF480168F248006802F0BD
:1044500097FE8246EE4902F035FD8046E848016845
:10446000ED48006802F08CFE8246E94902F02AFD20
:104470008146414602F0B8FC0746314602F0B4FCE2
:10448000E6490860DE480068DF490860E3480068E4
:10449000BDE8F0872DE9F04704460D462946204641
:1044A00002F06BFFDE49086008460168DD480068DD
:1044B00002F09AFCDB490860DB480168D8480068D4
:1044C00002F066FF8146D1480168484602F058FE76
:1044D0008046CF4902F0F6FC0646D2480168CD4836
:1044E000006802F04DFE8246C94902F0EBFC8046AE
:1044F000CB480168C848006802F042FE8246C449C1
:1045000002F0E0FC8146414602F06EFC074631466F
:1045100002F06AFCC5490860C1480068C2490860E9
:10452000C2480068BDE8F0872DE9F04704460D4613
:104530002946204602F021FFBD490860084601686F
:10454000BC48006802F050FCBA490860BA480168EB
:10455000B748006802F01CFF8146AC480168484635
:1045600002F00EFE8046AA4902F0ACFC0646B148B5
:104570000168A848006802F003FE8246A44902F0E0
:10458000A1FC8046AA480168A348006802F0F8FD33
:1045900082469F4902F096FC8146414602F024FC87
:1045A0000746314602F020FCA4490860A048006894
:1045B000A1490860A1480068BDE8F0872DE9F047EF
:1045C00004460D462946204602F0D7FE9C49086065
:1045D000084601689B48006802F006FC994908609B
:1045E000994801689648006802F0D2FE81468748E3
:1045F0000168484602F0C4FD8046854902F062FC2D
:104600000646904801688348006802F0B9FD82467A
:104610007F4902F057FC8046894801687E4800685F
:1046200002F0AEFD82467A4902F04CFC81464146DA
:1046300002F0DAFB0746314602F0D6FB83490860F8
:104640007F4800688049086080480068BDE8F087BE
:1046500070B54FF49664A510284602F031FD064669
:104660007B480168304602F057FE04D2284602F02B
:1046700027FD77490860204602F022FD064674486F
:104680000168304602F048FD04D2204602F018FDD1
:104690006F490860284602F013FD06466D48016820
:1046A000304602F039FE04D2284602F009FD69497D
:1046B0000860204602F004FD064666480168304660
:1046C00002F02AFD04D2204602F0FAFC614908609B
:1046D000284602F0F5FC06465F480168304602F0C5
:1046E0001BFE04D2284602F0EBFC5B490860204622
:1046F00002F0E6FC064658480168304602F00CFD20
:1047000004D2204602F0DCFC53490860284602F03F
:10471000D7FC064651480168304602F0FDFD04D240
:10472000284602F0CDFC4D490860204602F0C8FC46
:1047300006464A480168304602F0EEFC04D22046A4
:1047400002F0BEFC45490860284602F0B9FC064666
:1047500043480168304602F0DFFD04D2284602F0EB
:10476000AFFC3F490860204602F0AAFC06463C48E0
:104770000168304602F0D0FC04D2204602F0A0FCD2
:1047800037490860284602F09BFC06463548016818
:10479000304602F0C1FD04D2284602F091FC3149B6
:1047A0000860204602F08CFC06462E480168304620
:1047B00002F0B2FC04D2204602F082FC29490860D3
:1047C00070BD2DE9F04104462748007801287AD1D0
:1047D00026480068052807D125480168204602F0D0
:1047E00003FB234908606BE120480068072841D19A
:1047F0001F480168204602F0C0FD1D4908605FE1C6
:1048000080010020880100208C010020BC000020D5
:104810000000C842B8000020B4000020840100203D
:1048200070010020780100207C010020740100202C
:1048300060010020680100206C010020640100205C
:1048400050010020580100205C010020540100208C
:10485000880000208C0000209000002094000020A0
:10486000980000209C00002014000020D0000020B0
:10487000A0000020FE4800680C2807D1FD48016810
:10488000204602F0B1FAFB49086019E1F8480068D7
:104890000A2807D1F7480168204602F06EFDF54965
:1048A00008600DE1F248006808280DD1F249204661
:1048B00002F066FC0546F1480168284602F05DFDFD
:1048C000EE490860FCE06CE0E948006806280CD17D
:1048D000E949204602F054FC0546E84801682846AC
:1048E00002F082FAE5490860EAE0E14800680D2834
:1048F00007D1E3480168204602F03FFDE049086027
:10490000DEE0DB4800680F2807D1DD48016820465B
:1049100002F06AFADA490860D2E0D54800680E2849
:104920000CD1D849204602F02BFC0546D648016838
:10493000284602F059FAD4490860C1E0CC48006822
:1049400010280CD1CF49204602F01AFC0546CE486B
:104950000168284602F011FDCB490860B0E0C44868
:10496000006804280CD1C449204602F009FC054621
:10497000C6480168284602F037FAC44908609FE03B
:10498000BB48006801288CD1BB49204602F0F8FBE7
:104990000546BE480168284602F0EFFCBB490860A6
:1049A0008EE0B3480068082807D1B948016820465E
:1049B00002F01AFAB649086082E0AD48006806289D
:1049C00007D1B3480168204602F0D7FCB04908601F
:1049D00076E0A74800680C2807D1AE480168204659
:1049E00002F0CBFCAB4908606AE0A14800680A28E5
:1049F00007D1A8480168204602F0F6F9A5490860E9
:104A00005EE09B480068052807D1A348016820465E
:104A100002F0B3FCA049086052E0954800680728FE
:104A200007D19D480168204602F0DEF99A490860E6
:104A300046E08F4800680D2807D198480168204655
:104A400002F09BFC954908603AE0894800680F280D
:104A500007D192480168204602F0C6F98F490860E4
:104A60002EE0834800680E2807D187480168204659
:104A700002F0BAF98449086022E07D4800681028F5
:104A800007D181480168204602F077FC7E49086022
:104A900016E077480068042807D18148016820465D
:104AA00002F06BFC7E4908600AE07148006801284A
:104AB00006D17B480168204602F096F978490860E3
:104AC0006B4800680B280ED17648006802F060F948
:104AD0000546754A754B01F01FFC074601F0EAFBDD
:104AE0007049086011E06248006809280DD16D48DE
:104AF000006802F04DF905466B4A6C4B02F05EF817
:104B0000074601F0D7FB67490860694965480068B6
:104B100002F002FB02D866486249086065496148B4
:104B2000006802F0F9FB02D862485E490860BDE8FF
:104B3000F0810146B1F52F7F01DA012000E000206D
:104B4000704710B53220FDF73CFF0446012C07D119
:104B50005948007808B9012000E000205649087043
:104B600010BD7CB501218807FDF79DFA00287DD096
:104B700001218807FDF7A8FA5048007801280BD1D9
:104B80004F480078401CC0B24D490870052803D139
:104B90000020087049490870FFF7D3FF49480068B2
:104BA000FFF7C7FF002862D143480078012816D1DB
:104BB00045493C48006802F085F90546FFF701FECB
:104BC0003248006800902E4803682C480268294843
:104BD00001683E480068FEF793FF044607E0344949
:104BE0003048006802F06EF90546FFF7EAFDFFF76E
:104BF0002FFD2748016836480068FFF7DFFC35497C
:104C000008602448016834480068FFF78DFC334988
:104C100008602148016832480068FFF73BFC3149D1
:104C200008601E48016830480068FFF7E9FB2F491B
:104C30000860154801682E480068FFF740FB2D49C1
:104C40000860174801682C480068FFF7EEFA2B4906
:104C50000860FFF727FA2948006826490968CDE966
:104C60000010224803681F48026849E06BE04DE0ED
:104C7000D0000020A400002000007A44A8000020FA
:104C8000AC00002000803B4598000020B0000020D0
:104C9000880000208C00002090000020940000205C
:104CA0009C0000205C0000209A9999999999A93F4D
:104CB000000040400000F04114000020650000208A
:104CC000640000206000002000401C46A00000207E
:104CD000440000202C00002048000020300000206C
:104CE0004C0000203400002050000020380000203C
:104CF000540000203C00002058000020400000200C
:104D00001548016815480068FFF770F96420FDF741
:104D10000FFEFEF7C0F912490968084410490860FF
:104D200010480068401C0F49086064280BD10C48EB
:104D30000068642190FBF1F00B49086000200849ED
:104D400008600849086000207CBD0146002901DA9E
:104D5000484200E008467047300000202C00002048
:104D600044010020400100206000002038B5FAA274
:104D700000210846FEF75FF80C2002230090F74858
:104D8000002102680520FEF70CF8F5A2002114208E
:104D9000FEF751F8F348006802F072F904460C205F
:104DA00002232246002100901B20FDF7FAFFEEA20D
:104DB00000213520FEF73FF8ECA200214B20FEF742
:104DC0003AF8EB480068642190FBF1F40C200223D0
:104DD0002246002100902820FDF7E3FFE448006808
:104DE000642190FBF1F201FB12040C200223224605
:104DF000002100903F20FDF7D4FFDD4800686421CA
:104E000090FBF1F201FB12000A2807DA0C200223C2
:104E10000022114600903920FDF7C3FFD5480078E5
:104E2000012805D1D4A200215A20FEF704F807E09A
:104E3000D048007820B9D1A200215A20FDF7FBFF0D
:104E40000021CF48006802F067F915D2CDA20A21EF
:104E50000020FDF7F0FFCA48006880F000452846B2
:104E600002F00EF904460C20062322460A21009087
:104E70000F20FDF796FF11E0C3A20A210020FDF7E5
:104E8000DAFFBF48006802F0FBF804460C20062356
:104E900022460A2100900F20FDF783FF0021BB4826
:104EA000006802F039F915D2B6A20A213C20FDF7BC
:104EB000C2FFB648006880F00045284602F0E0F8DE
:104EC00004460C20062322460A2100904B20FDF7C1
:104ED00068FF11E0ACA20A213C20FDF7ACFFAB4813
:104EE000006802F0CDF804460C20062322460A2171
:104EF00000904B20FDF755FF0021A548006802F007
:104F00000BF915D29FA214210020FDF794FFA048B1
:104F1000006880F00045284602F0B2F804460C20F4
:104F200006232246142100900F20FDF73AFF11E0DE
:104F300095A214210020FDF77EFF9548006802F03D
:104F40009FF804460C2006232246142100900F20CF
:104F5000FDF727FF00218F48006802F0DDF815D229
:104F600088A214213C20FDF766FF8A48006880F083
:104F70000045284602F084F804460C200623224609
:104F8000142100904B20FDF70CFF11E07EA21421AC
:104F90003C20FDF750FF7F48006802F071F804469E
:104FA0000C2006232246142100904B20FDF7F9FE29
:104FB00000217948006802F0AFF815D271A21E21D5
:104FC0000020FDF738FF7448006880F0004528464F
:104FD00002F056F804460C20062322461E210090BB
:104FE0000F20FDF7DEFE11E067A21E210020FDF775
:104FF00022FF6948006802F043F804460C200623AB
:1050000022461E2100900F20FDF7CBFE00216348B1
:10501000006802F081F815D25AA21E213C20FDF74B
:105020000AFF5E48006880F00045284602F028F834
:1050300004460C20062322461E2100904B20FDF73B
:10504000B0FE11E050A21E213C20FDF7F4FE5348B3
:10505000006802F015F804460C20062322461E21A3
:1050600000904B20FDF79DFE00214D48006802F0A6
:1050700053F815D243A228210020FDF7DCFE484852
:10508000006880F00045284601F0FAFF04460C2035
:1050900006232246282100900F20FDF782FE11E012
:1050A00039A228210020FDF7C6FE3D48006801F026
:1050B000E7FF04460C2006232246282100900F20FB
:1050C000FDF76FFE00213748006802F025F815D281
:1050D0002CA228213C20FDF7AEFE3248006880F06B
:1050E0000045284601F0CCFF04460C20062322464A
:1050F000282100904B20FDF754FE11E022A2282128
:105100003C20FDF798FE2748006801F0B9FF0446EF
:105110000C2006232246282100904B20FDF741FE5B
:1051200000212148006801F0F7FF3FD215A232218B
:105130000020FDF780FE1C48006880F000452846EE
:1051400001F09EFF04460C200623224632210090E7
:105150000F20FDF726FE3CE04B000000D0000020B1
:10516000530000005C0000202E00000056000000EC
:10517000600000201400002058595A0041424300AA
:10518000880000202D0000002B00000044000020BB
:105190008C00002048000020900000204C000020DF
:1051A000940000205000002098000020AFF2280258
:1051B00032210020FDF73FFE8448006801F060FFC7
:1051C00004460C2006232246322100900F20FDF7D2
:1051D000E8FD00217E48006801F09EFF16D2AFF284
:1051E0005C0232213C20FDF726FE7948006880F001
:1051F0000045284601F044FF04460C2006232246C1
:10520000322100904B20FDF7CCFD12E0AFF2880276
:1052100032213C20FDF70FFE6D48006801F030FFA1
:1052200004460C2006232246322100904B20FDF735
:10523000B8FDFDF7D6FC38BD2DE9904F87B0654825
:105240000068A0F256404000032190FBF1F4002CCE
:1052500000DA0024642C00DD64245F48007808B97B
:10526000012000E000205C4908705C4800780128BB
:1052700034D15B495B48006801F082FF834601F04E
:10528000E3FE074656495848006801F079FF834617
:1052900001F0DAFE804652495448006801F070FF80
:1052A000834601F0D1FE81464D495148006801F026
:1052B00067FF834601F0C8FE8246002002900390FB
:1052C0000490059043464A465146CDE9007049A0F6
:1052D00000F070F90020414908702CE03E48007849
:1052E00040B90020E3B2F2B2E9B2009049A000F068
:1052F00061F920E03648006801F0A6FE07464948FB
:10530000006801F0A1FE80464748006801F09CFE5D
:1053100081464648006801F097FE8246444800688E
:1053200001F092FE83464B465246594641A0CDE9D4
:10533000008700F03FF907B0BDE8908F10B5254811
:10534000006801F0BDFE0446254901F0BBFD3E4961
:10535000086001213648006800F08EF802213348C9
:10536000006800F089F803212F48006800F084F8F5
:1053700004212C48006800F07FF8052114480068DB
:1053800000F07AF8052000F0C6F8304908700020D7
:105390002F49087012E000BF2E48008800F040003E
:1053A0000028F9D02C482A490978405C2949091D70
:1053B000088027480078401C254908702448007858
:1053C000224909788842E6DB10BD000098000020E1
:1053D0005400002060000020B80100206700002079
:1053E0000000C842780000207400002070000020F7
:1053F0006C0000207B4325643A25643A25643A25F5
:10540000643A25643A25643A25643A25643A256469
:105410007D2400007B4125643A25643A25643A25C1
:10542000647D2400500000204C0000204800002033
:10543000440000207B4225643A25643A25643A25DD
:10544000643A25647D240000B4010020B1010020ED
:10545000B001002000380140ED09002030B50346BE
:105460001C788C545D78541C0D559D78941C0D55FA
:10547000DD78D41C0D5530BD13B50C460A2C00DC6C
:1054800004B91CBD0B2C43D2DFE804F042060C1219
:10549000181E242A30363C00012244496846FFF792
:1054A000DDFF35E0052241496846FFF7D7FF2FE0D1
:1054B00009223E496846FFF7D1FF29E00D223B490A
:1054C0006846FFF7CBFF23E0112238496846FFF713
:1054D000C5FF1DE0152235496846FFF7BFFF17E0FD
:1054E000192232496846FFF7B9FF11E01D222F4902
:1054F0006846FFF7B3FF0BE021222C496846FFF70F
:10550000ADFF05E0252229496846FFF7A7FF00BF48
:1055100000BF00BFB5E701460A2900DC09B9002039
:1055200070472420214A10700B293CD2DFE801F09B
:105530003B060B10151A1F24292F350005201B4A86
:1055400050710620ECE70920184A50720A20E7E75C
:105550000D20164A50730E20E2E71120134A5074B2
:105560001220DDE71520114A50751620D8E71920C2
:105570000E4A50761A20D3E71D200C4A50771E2081
:10558000CEE72120094A82F821002220C8E7252001
:10559000064A82F825002620C2E72920034A82F81D
:1055A00029002A20BCE70020BAE70000ED0900200E
:1055B000704700000FB4044910B503AA029800F028
:1055C000DBF810BC5DF814FBEC0000202DE9F04185
:1055D0000E460446002020622046E168884730B32A
:1055E000252805D0D4E901219047206A401CF2E724
:1055F000E168204600278847050018D0A5F1410042
:10560000192802D820354FF4006732462946204633
:105610002760FAF7C5FD40B1012804D0F61D26F039
:1056200007060836D8E7361DD6E72846DAE7206AA7
:10563000BDE8F0812DE9F041064600241068752987
:10564000314615A510D0AFF30080002802DA4042A1
:1056500012A507E031688A0701D511A502E04907C4
:1056600004D510A5012401E0AFF3008000210A2336
:1056700006F1240707E0B0FBF3F203FB1200303021
:1056800078541046491C0028F5D123462A46304656
:10569000BDE8F04100F017B8000000002D00000048
:1056A0002B000000200000007047704770477047D3
:1056B00010B500F073F8006810BD10B5044600F096
:1056C0006DF8046010BD2DE9F0470D4699469246ED
:1056D000044600F124080168880604D5E06921F039
:1056E0001001216000E00120A84201DD471B00E01D
:1056F0000027A1697A1902EB0900081AA061207835
:10570000C00602D42046AFF30080002608E0D4E9AA
:1057100001211AF806009047206A401C761C20627E
:105720004E45F4DB2078C0060AD52046AFF3008052
:1057300006E0D4E9012130209047206A401C206215
:10574000381EA7F10107F4DC07E0D4E9012118F8BD
:1057500005009047206A401C2062281EA5F1010523
:10576000F3DC2046AFF300802078000602D502204B
:10577000BDE8F0870120FBE7074B70B50D467B4481
:1057800000F015F80446284600F024F810B14FF058
:10579000FF3070BD204670BDEDD0FFFF0048704760
:1057A000180A002001694A1C02610878704700B598
:1057B0008FB0CDE901310021059105497944CDE94A
:1057C000031011466846FFF701FF0FB000BD00004F
:1057D000E5FFFFFF007B00F0800070470048704746
:1057E000180A00207546FFF7F9FFAE460500694626
:1057F000534620F00700854618B020B5FAF76AFE38
:10580000BDE820404FF000064FF000074FF00008C1
:105810004FF0000B21F00701AC46ACE8C009ACE842
:10582000C009ACE8C009ACE8C0098D467047044621
:10583000AFF300802046FAF7C5FC490050EAC120CA
:1058400018BF04204A0D18BF40F0010040F2FF725B
:10585000B2EB515F08BF40F00200012808BF0520ED
:10586000704700002DE9F74F144696B00021C4E9B7
:1058700002111799089121F00045CA498D4206DCB2
:105880001799C4E9000119B00020BDE8F08FC6499E
:10589000DFF818A3A9423CDD0899C54E0029C54F81
:1058A000C54A1799534619DD01F088F9554506D0C8
:1058B000C24AC34B01F082F9C4E900010AE04FF08B
:1058C000D352BF4B01F07AF932463B4601F076F9EC
:1058D000C4E9000119B00120BDE8F08F00F01CFD03
:1058E000554506D0B54AB64B00F016FDC4E9000197
:1058F0000AE04FF0D352B24B00F00EFD32463B4669
:1059000000F00AFDC4E9000119B04FF0FF30BDE816
:10591000F08FAC49A942179978DB21F00048834603
:10592000A94AAA4B414600F059FF0022A84B00F0BB
:10593000F3FC00F0F9FE099000F025FF06460F4643
:105940009D4A534600F04AFF5A46434601F044F848
:1059500080468A46994A9A4B3046394600F03EFFC7
:105960002A0D01250B924246534601F035F8032DCE
:10597000C4E9000139D00B98C1F30A51401A05EB74
:1059800045111139814230DA9248C346784400EB20
:105990000510CDF81CA00C90D0E900233046394604
:1059A00000F01CFFCDE9020102460B46584607995C
:1059B00001F004F980468A4602460B46584607998C
:1059C00001F0FCF8DDE9022301F0F8F883460C98B9
:1059D00003913946D0E90223304600F0FFFE5A46D3
:1059E000039B01F0EBF86D1CBDE708980028A2BFEF
:1059F000099819B0BDE8F08F616881F000416160DD
:105A0000099819B04042BDE8F08FFFE7C1F31301D8
:105A100041F480110E911799C1F30A51A1F2F532A8
:105A2000511102F01F08C8F12002129200220C92BC
:105A30000D92694A7A4402EB810101F1140C0DA91F
:105A40005FF00607DCF80020DCF8045002FA08F3E7
:105A5000129AD1F800A025FA02F21A430E9BA2FB7B
:105A60000356A2FB00329A4415449A4534BF4FF0C6
:105A7000010B4FF0000B51F8043C05EB0B0E734487
:105A8000954234BF012200221644BBF1000F02D020
:105A9000AB4202D903E0AB4201D2012200E0002276
:105AA00041F808A93244E1E801237F1EACF1040C5F
:105AB000C8D10898DDE90A6500F10050800F119007
:105AC0000898099F800000F05EFE80468A463846AE
:105AD00000F070FE6FF01D0201F001FD0746304638
